:020000040800F2
:1000000010090020A90100086B5C0008893B00086A
:10001000695C0008A5150008A9650008000000003B
:100020000000000000000000000000005D5D00080E
:10003000B9180008000000006D5C0008E9600008C5
:10004000C3010008C3010008C3010008C301000880
:10005000C3010008C3010008C3010008C301000870
:10006000C3010008C3010008C301000865170008A8
:10007000C3010008C3010008C3010008C301000850
:1000800071170008C3010008C3010008C30100087C
:10009000C3010008C3010008C3010008C301000830
:1000A000C3010008C3010008C3010008C301000820
:1000B000C3010008C301000869610008C30100080A
:1000C000C3010008C3010008C3010008C301000800
:1000D000C3010008C30100089D650008C3010008B2
:1000E000C3010008C3010008C301000800F002F8C2
:1000F00000F04AF80AA090E8000C82448344AAF178
:100100000107DA4501D100F03FF8AFF2090EBAE875
:100110000F0013F0010F18BFFB1A43F0010318473B
:10012000A0710000C0710000103A24BF78C878C1E7
:10013000FAD8520724BF30C830C144BF04680C60ED
:10014000704700000023002400250026103A28BF35
:1001500078C1FBD8520728BF30C148BF0B60704739
:10016000662907F04680642900F08E8000207047E1
:100170001FB500F01BFC04000020002106F0AEFBC0
:10018000E0601FBD10B510BD00F010FD1146FFF777
:10019000EFFF06F035FA00F02EFD03B4FFF7F2FF93
:1001A00003BC00F071FD0000094880470948004782
:1001B000FEE7FEE7FEE7FEE7FEE7FEE7FEE7FEE717
:1001C000FEE7FEE704480549054A064B7047000074
:1001D00065610008ED0000081003002010090020F0
:1001E0001005002010050020B2F120030AD5C2F14D
:1001F000200320FA02F001FA03F321FA02F140EAA7
:100200000300704721FA03F04FF00001704700002F
:100210000FB41CB5074B06AA7B44694600900598AD
:1002200000F0ABFB0020694600F0BAFB1CBC5DF897
:1002300014FB00008507000070B50446856900685E
:10024000C10601D5302600E02026C00707D070BDCA
:10025000D4E9012130469047206A401C20626D1E7F
:10026000F6D570BD70B5044685690078C00707D122
:1002700070BDD4E9012120209047206A401C2062F3
:100280006D1EF6D570BD00002DE9F0410646002434
:1002900010687529314616A510D0AFF300800028EC
:1002A00002DA404213A507E031688A0701D512A59A
:1002B00002E0490704D511A5012401E0AFF3008055
:1002C00000210A2206F1240709E0B0FBF2FCB0FB92
:1002D000F2F302FB1C00303078541846491C002809
:1002E000F3D123462A463046BDE8F04100F0D8B8A5
:1002F000000000002D0000002B0000002000000086
:100300002DE9F0474FF0000A89460446C0F820A0C6
:100310002046E1688847002876D0252806D0D4E911
:1003200001219047206A401C2062F1E7E1682046E5
:1003300000258847C4F81CA006460027C4F818A06A
:100340002A2E09D0304606F054F938B304EB87085A
:10035000303EC8F8186019E059F8041B204604EB39
:1003600087029161E1688847012F064618D1E0694C
:10037000002820DA25F020051DE0D8F8180000EB51
:10038000800006EB40003038C8F818002046E168CD
:100390008847064606F02DF90028EED1012F0AD035
:1003A0002E2E08D12046E16888477F1C0646022F82
:1003B00045F02005C4DBA069002803DA404245F07F
:1003C0000105A061E80701D025F01005B6B1A6F13E
:1003D0004100192802D8203645F400654A463146C6
:1003E000204625604D46FFF7BBFE58B1012806D0D8
:1003F000ED1D25F0070000F1080989E704E005F18B
:10040000040985E730468AE7206ABDE8F08710B521
:10041000431C02E010F8011B71B18107FAD14FF0C3
:10042000013202C88C1A8C4314EAC211F9D0C01AE6
:100430000A0603D0C01E10BDC01A10BD0A0401D0A8
:10044000801E10BD0902FCD0401E10BD4FF00002FE
:1004500000B5134694469646203922BFA0E80C50BA
:10046000A0E80C50B1F12001BFF4F7AF090728BF95
:10047000A0E80C5048BF0CC05DF804EB890028BF11
:1004800040F8042B08BF704748BF20F8022B11F03A
:10049000804F18BF00F8012B7047704770477047B6
:1004A0002DE9F0470D4699469246044600F124088E
:1004B0000168880604D5E06921F01001216000E0A0
:1004C0000120A84201DD471B00E00027A1697A193D
:1004D00002EB0900081AA0612078C00602D4204669
:1004E000FFF7AAFE002608E0D4E901211AF8060069
:1004F0009047206A401C761C20624E45F4DB207831
:10050000C0060AD52046FFF797FE06E0D4E9012190
:1005100030209047206A401C2062381EA7F1010756
:10052000F4DC07E0D4E9012118F805009047206ABF
:10053000401C2062281EA5F10105F3DC2046FFF7D0
:1005400091FE2078000602D50220BDE8F087012048
:10055000FBE770472DE9FF4F0C461E464FF0FF3773
:100560008BB0D2E90001DDF860800A908A46C1F3C1
:100570000A5505B93D46002108464FF00000BAF182
:10058000000F00F4400005DA00EB80004FF440015A
:1005900001EA50004FEA9059B9F1010F00DDB94668
:1005A0000A9850EA4A000ED044F61050A5F2FF35E2
:1005B00045432F14B8F1000F1ED07542291E1EDDD1
:1005C000C9F100021CE0B8F1010F4FF0000001D0AA
:1005D000302103E0F24305E02154401CB042FBDB34
:1005E00030460022002121540B99C1F80880C1E94E
:1005F00000200FB0BDE8F08FBD1B6D1CDEE74A4642
:1006000000DA694206A800F05BFA06AB93E807003F
:1006100003AB83E8070050460A9900F03CFB8DE8E5
:100620000700A0F500501F3800900398002D0ADD48
:1006300042F21F014A460844002303A9039068467A
:1006400000F0A5FD09E0A0F500504A461F38002340
:1006500003A90390684600F0AFFD8DE80700000491
:10066000000C03D04FF0FF30410800E01046B8F115
:10067000000F03D00022009215461EE0751E05D41F
:1006800000F098F9303262556D1EF9D5B34601225B
:10069000084302D000227F1C04E02078302801D1DA
:1006A00000227F1E002A099784D01DE0112D07DA51
:1006B00000F080F9303262556D1C50EA0102F5D12C
:1006C000084302D00098C8B10EE00021681E05E082
:1006D000235C625C63542254401E491C8142F7DB58
:1006E000AB46A81B401E0990002004F80B000B9895
:1006F000099AC0F80880C0E9002B7AE711264FF06C
:10070000000857E72DE9F04F88460446D21D22F035
:10071000070191B0D1E90001CDE90A0105F045FFDB
:1007200002460B98C00F01D02D2007E020688107FA
:1007300001D52B2002E0202101EAC000032A099004
:1007400001D0072A05DB03464146204600F078F930
:100750000BE12078800601D5E06900E00620B8F1C1
:10076000650F814606D0B8F1660F18D0B8F1670F53
:1007700070D131E00020B9F1110F009001DB11239D
:1007800001E009F101030AAA01A90CA8FFF7E2FEA2
:10079000DDE90C70002609F10105834647E00120E0
:1007A0004B4600904FF000470AAA01A90CA8FFF79A
:1007B000D1FEDDE90DB00C995D46002610B909F1B6
:1007C00001000D18B9EB050003D4C0F1FF3609F1A3
:1007D0000105A5EB09002BE0B9F1010F01DA4FF09B
:1007E00001090020B9F1110F0090484601DD1123E5
:1007F00000E003460AAA01A90CA8FFF7ABFEDDE959
:100800000C704D4600268346207800070AD4AB457D
:1008100000DA5D4601A8012D04DD411911F8011C23
:10082000302907D04F4502DA17F1040F04DA01200E
:1008300082460FE06D1EEEE7002F02DCED1B3E440A
:1008400003E0781CA84200DD7D1CB81B00F1010A02
:100850004FF000472078000703D4AA4501DB4FF092
:10086000FF3A0021B7F1004F0DF143088DF8431016
:1008700024D002202B23002F01DA7F422D230A21CE
:10088000021EA0F1010000DC5FB197FBF1FC97FBB9
:10089000F1F201FB1C7C17460CF1300C08F801CD7D
:1008A000EEE7A8F1010003702188090501D5452173
:1008B00000E06521A0F1010800F8011C09980FA9CA
:1008C000A1EB0807FF1D00B10120411901EBEA70FF
:1008D000A1693844081A401EA0612078C00602D4DD
:1008E0002046FFF7A9FC099828B1D4E901219047D7
:1008F000206A401C20622078C00622D52046FFF7DF
:100900009BFC1EE0002E04DBB34502DD01A8805DE8
:1009100000E03020D4E901219047206A401C206289
:10092000761CAAF101005FEA000A0AD100F03EF845
:10093000C0680168405CD4E901219047206A401CEE
:100940002062281EA5F10105DCDC07E0D4E90121C5
:1009500018F8010B9047206A401C2062381EA7F14E
:100960000107F3DC2046FFF77DFC032011B041E6D0
:1009700001694A1C02610878704700B58FB0CDE963
:1009800001310021059105497944CDE90310114653
:100990006846FFF7B5FC0FB000BD0000E5FFFFFFA4
:1009A0000A6802F8010B0A607047000000487047AF
:1009B000D002002030B5B0F10A024FEA900E71F17A
:1009C00000034EEA817EB0EB0E0061EB91014FEA2D
:1009D000101E4EEA017E10EB0E0041EB11114FEAA2
:1009E000102E4EEA016E10EB0E0041EB11214FEA82
:1009F000104E4EEA014E10EB0E0041EB1141401833
:100A000041F100014FEAD00040EA41704FEAD101C4
:100A100010EB80054FEA810444EA907444EB010432
:100A20006D1944EB0404521BA3414FF0000348BF6F
:100A30000A3200D530BD401C41F1000130BD00003C
:100A40002DE9F0411F46044603260168072A01F4F8
:100A5000006004DB08B116A505E016A503E008B1A7
:100A600015A500E015A521F010002060A069C01EAA
:100A7000A0610FB1401EA0612046FFF7DDFB4FB122
:100A8000D4E9012138469047206A401C2062C01CEE
:100A9000206206E0206AFAE7D4E9012115F8010B8B
:100AA0009047761EF8D22046FFF7DCFBBDE8F081C8
:100AB0004E414E006E616E00494E4600696E660002
:100AC0002DE9F047814616468AB0354878440DC86E
:100AD0008DE80D0032487844801C03AC0DC884E8D2
:100AE0000D0041F69B300844372190FBF1F290FB5A
:100AF000F1F5A5F1800501FB12041B3C02D564420F
:100B0000012000E00020DFF898A080460027FA448A
:100B1000AAF1BE0A0EE0E0070AD03246684607EBAB
:100B2000470101230AEB810100F046FB8DE8070035
:100B300064107F1C002CEED1194F7F44AE3F19E0AA
:100B4000E80715D007EB04100DF1180A90E80E0025
:100B50008AE80E00C068F04201D198190890324628
:100B6000012306A903A800F027FB03AB83E80700D5
:100B70006D10641C002DE3D14FF00103324669462D
:100B8000B8F1000F03A802D000F001FB01E000F073
:100B900013FBC9E90001C9F808200AB0BDE8F087D5
:100BA000BC67000000487047B00200207546FFF7A0
:100BB000F9FFAE4605006946534620F0070085461A
:100BC00018B020B5FFF7FEFABDE820404FF0000650
:100BD0004FF000074FF000084FF0000B21F0070125
:100BE000AC46ACE8C009ACE8C009ACE8C009ACE868
:100BF000C0098D46704710B50446AFF3008020460B
:100C0000BDE81040FFF7C9BA4FF0013C50F8042B83
:100C100051F8043B9A4221D1A2EB0C03934313EA0F
:100C2000CC1317D150F8042B51F8043B9A4215D13C
:100C3000A2EB0C03934313EACC130BD150F8042B13
:100C400051F8043B9A4209D1A2EB0C03934313EAF7
:100C5000CC13DBD04FF00000704700BFD01A01BAB0
:100C6000B1FA81F101F0180122FA01F0CB40C1F193
:100C70002001DBB2C0B2C01A2CFA01F3D11A9143A1
:100C800011EAC311E6D1704701491820ABBEFEE757
:100C90002600020070475FEA400C08BF91F0000F89
:100CA0004FEA8C234FEAC12243EA51514FEA1C50CC
:100CB00018BF00F5F0404FEA300018BF41F0004186
:100CC0005FEA6C5C00F02980BCF1FF3F08BF40F098
:100CD00080407047130C06BF12044FF0100C4FF009
:100CE000000C130E04BF12020CF1080C130F04BF0A
:100CF00012010CF1040C930F04BF92000CF1020CD2
:100D0000D30F04BF52000CF1010C11464FF000024A
:100D1000A0F11F00A0EB0C00704711F0004F08BFBE
:100D2000704731F000413FF4D5AF0B0C06BF09040A
:100D30004FF0100C4FF0000C0B0E04BF09020CF129
:100D4000080C0B0F04BF09010CF1040C8B0F04BF3E
:100D500089000CF1020CCB0F04BF49000CF1010C0F
:100D6000CCF12003A0EB0C0022FA03F302FA0CF200
:100D700041EA030100F10100704720F07F4C80EA56
:100D8000030023F07F47ACEB070303F57C5300F02F
:100D9000004003F1FF032DE980494FEA154B09B4E8
:100DA0004FEA144325EA0B4E24EA03480FF20426C7
:100DB00006EB132749083E785FEA320203FB066719
:100DC000C7F5000707FB06F64FEA54374FEAD64649
:100DD00006F1020607FB066CCCF1005C4FEA1C47EB
:100DE0002CEA074C07FB06F40CFB06F504EB154652
:100DF0004FEA961634BF00204FF000404FEAD1373B
:100E000006FB07FC4FEA1C4C0CFB0BF7D21B03FB49
:100E10000CF761EB07010CFB0EF7B0EB074072EB30
:100E200017420CFB08F734BFA2EB0742B2EB0742B4
:100E300061EB17414FEA0C444FEA910706FB07FCB0
:100E40004FEA1C4C0CFB0BF7B0EBC74072EB573270
:100E500003FB0CF734BFA2EBC742B2EBC74261EB16
:100E600057310CFB0EF7B0EBC70072EB57720CFB5F
:100E700008F734BFA2EBC702B2EBC70261EB5771B0
:100E8000039F4FEA816141EA921104EBCC044FEADF
:100E9000D1374FEA826206FB07FC42EA90124FEA22
:100EA00080604FEA1C4C0CFB0BF7D21B03FB0CF7CA
:100EB00061EB07010CFB0EF7B0EB074072EB17423A
:100EC0000CFB08F734BFA2EB0742B2EB074261EB21
:100ED00017414FEA8C554FEA910704EB9C2406FB1F
:100EE00007FC4FEA1C4C0CFB0BF7B0EBC74072EB56
:100EF000573203FB0CF734BFA2EBC742B2EBC74239
:100F000061EB57310CFB0EF7B0EBC70072EB577279
:100F10000CFB08F734BFA2EBC702B2EBC70261EBD0
:100F2000577115EB4C254FEA816141EA92114FEA66
:100F300082624FEAD13742EA901206FB07FC44F185
:100F400000044FEA80604FEA1C4C0CFB0BF7D21BED
:100F500003FB0CF761EB07010CFB0EF7B0EB07404E
:100F600072EB17420CFB08F734BFA2EB0742B2EB5F
:100F7000074261EB174115EB1C154FEA813141EA3D
:100F800092414FEA823242EA90424FEA80304FEA81
:100F90000C7644F1000448EA03434EEA0B484FF054
:100FA000000EB2EB080C71EB030724BF6246394612
:100FB0004EEB0E0E4FF0000B0018524149414BEB27
:100FC0000B0BB2EB080C71EB03077BF1000B24BF9A
:100FD000624639464EEB0E0E4FF0000B00185241A0
:100FE00049414BEB0B0BB2EB080C71EB03077BF1A8
:100FF000000B24BF624639464EEB0E0E51EA020743
:1010000018BF46F0010616EB0E7655F1000254F1BA
:10101000000103D5BDE88901BDE80088BDE889016C
:10102000BDE80048B619524141EB0101A3F10103AB
:10103000704780807F7E7D7C7B7A79787776767545
:101040007473727171706F6E6E6D6C6C6B6A6A69BD
:101050006868676666656464636362616160605F57
:101060005F5E5E5D5D5C5C5B5B5A5A5959585857D0
:101070005756565555555454535352525251515038
:1010800050504F4F4F4E4E4D4D4D4C4C4C4B4B4B8B
:101090004A4A4A49494948484847474747464646D1
:1010A000454545444444444343434342424242410C
:1010B0004141002B9C4630D477002BD01CB54FEA21
:1010C000370703B44FF010004FF01001BAF1000FD2
:1010D00006D0BCF1000FDCBF40F0080040F0080172
:1010E0004FF000000FBCBDE810400BF1010BBBF14D
:1010F000010F08BF5FEA170722BF12F1010211F1C9
:1011000001014FF0004143F1000300F0004043EAC9
:1011100000007047F9D35708D0E746EA064613F1B6
:10112000400F4FEA16461FDD13F1200FDFBF1643B5
:101130000A46002120335B42BED0C3F1200746EAB5
:10114000064602FA07F74FEA164646EA0706C3F1D3
:10115000200722FA03F201FA07F721FA03F14FF010
:10116000000342EA0702A7E746EA020646EA064605
:101170004FEA164646EA0106BCBF46EA0646360C6A
:101180004FF000034FF000024FF0000194E72DE90B
:10119000804C9A46934670B491E8380007C831EA0B
:1011A000400C48BF34EA430C03D5FFF7E6FDFFF7D8
:1011B00080FFF0BCBDE8008C2DE9804C9A46934638
:1011C00070B491E8380007C810F0804F08BF13F0E2
:1011D000804F03D100F005F8FFF76BFFF0BCBDE8CE
:1011E000008C20F07F4780EA030023F07F4C07EB60
:1011F0000C03A3F57C5300F00040A3F1FE0392F032
:10120000000F00F0B38095F0000F00F077802DE91B
:1012100001494FEA11404FEA144621EA004800FB19
:1012200006FC24EA064708FB06F607FB08F800FB65
:1012300007F718EB06484CEB164C4FEA124B18EB2D
:1012400007484FEA15464CEB174022EA0B4E0BFBC2
:1012500006FC25EA06470EFB06F607FB0EFE0BFB17
:1012600007F71EEB064E4CEB164C4FF000061EEB3C
:10127000074E4CEB174B18EB0B0840F1000018EB36
:101280000E0B58EB000840F100008F1A4FF00001E0
:101290003CBFC943661B14BFB5EB040C00213CBF27
:1012A000C943F61B4FEA17444EEA8E0E27EA04455F
:1012B0004FEA1C4704FB07622CEA074C05FB07F7C3
:1012C0000CFB05F604FB0CFC16EB074642EB174241
:1012D00016EB0C4642EB1C421BEB060658EB0202D7
:1012E000414146EA9E0601D5BDE80189B619524141
:1012F00041EB0101A3F10103BDE801894FEA144567
:101300004FEA114724EA054621EA074C05FB07F49A
:1013100006FB07F70CFB06F105FB0CFC11EB074184
:1013200044EB17444FEA124711EB0C4144EB1C44C9
:1013300022EA074C05FB07F206FB07F70CFB06F653
:1013400005FB0CFC16EB074642EB174216EB0C466E
:1013500042EB1C456A1854F1000148BF7047B619AA
:10136000524141EB0101A3F10103704795F0000FD9
:1013700037D04FEA11424FEA144721EA024624EAE5
:10138000074C02FB07F106FB07F70CFB06F402FB18
:101390000CFC14EB074441EB17414FEA154714EBE3
:1013A0000C4441EB1C4125EA074C02FB07F506FB08
:1013B00007F70CFB06F602FB0CFC16EB074645EBA9
:1013C000174516EB0C4645EB1C42121951F1000172
:1013D00048BF7047B619524141EB0101A3F1010327
:1013E00070474FEA14454FEA114724EA054621EABF
:1013F000074C05FB07F106FB07F70CFB06F24FF065
:10140000000605FB0CFC12EB074241EB174112EB07
:101410000C4251EB1C4148BF7047921841EB01014F
:10142000A3F101037047000070B5044600688168AD
:10143000C943C90717D1816821F00101816001F01A
:101440006DF905460AE000BF01F068F9401B02286B
:1014500004D920688068C043C00706D0206880682F
:10146000C043C007F0D0002070BDA06A40F010005B
:10147000A062E06A40F00100E062012070BD10B59A
:101480000146406A826A12F0500F05D0006A026B72
:10149000BDE8104008461047816A41F4007181623E
:1014A00001688968C1F3424107290CD1017B51B918
:1014B000816A21F480718162816AC90403D4816ADE
:1014C00041F00101816200F09DFC10BD10B5406A41
:1014D000816A41F040018162C16A41F00401C16248
:1014E00000F092FC10BD10B5406A00F08CFC10BDFD
:1014F000F8B500260446009600688168C943C9070C
:101500002DD0816841F001018160164816490068BC
:10151000B0FBF1F000E0401E00900028FBD101F08C
:10152000FDF8054616E000BF01F0F8F8401B022860
:1015300010D920688068C043C0070BD0A06A40F073
:101540001000A062E06A40F00100E06284F82460CC
:101550000120F8BD20688068C043C007E4D10020A6
:10156000F8BD00009000002040420F0070B50C4D07
:1015700000244FF4006601223146284601F0C9F8E4
:10158000C82000F0A7F900223146284601F0C1F832
:10159000C82000F09FF9641CE4B2C82CEBD370BDE6
:1015A00000080140FEE70000064810B5008840BA78
:1015B00005F034FB0022044B05F0D8F9BDE81040DB
:1015C00005F0A2B9A0000020000024402DE9F0475A
:1015D0000027DFF8A490DFF8A4803D463E464FF098
:1015E000010AA9F10404700703D116B16D1CEDB214
:1015F000002701F093F8208001F090F8608001212D
:10160000404601F081F820B920886188801C88421A
:10161000F2D8232000F05EF90121404601F074F871
:10162000002848461FD0415DC7F107030AFA03F2BC
:10163000114309F805107F1CFFB201F06FF82080FC
:1016400001F06CF860800121404601F05DF820B1A6
:1016500020886188801C8842F2D8761CF6B2282E39
:10166000C1D3BDE8F087425DC7F107030AFA03F171
:101670008A4309F80520DEE7A000002000080140A9
:101680002DE9FF41002501202F4604468DE89100F9
:10169000234E022003906946304600F045FF0022A9
:1016A0000121304601F035F840F2DC5000F012F92B
:1016B00001221146304601F02CF81E2000F00AF9F4
:1016C000CDE90047CDE902476946304600F02CFFDE
:1016D000282000F0FFF80121304601F015F840B94C
:1016E000502000F0F7F80121304601F00DF800B16C
:1016F000012501F013F80B4CA4F8000001F00EF8DE
:1017000060800121304600F0FFFF20B12088618811
:10171000801C8842F2D804B02846BDE8F081000061
:10172000000801409C0000200B4810B5408840BADA
:10173000010406D5C0F30E0005F070FA0022074B35
:1017400003E005F06BFA0022054B05F00FF9BDE848
:10175000104005F0D9B80000A0000020000024C00F
:1017600000002440014800F01DBD00004C02002094
:10177000014800F017BD00000802002030B590F8C5
:1017800040500124AC40C56B6C60046863604368E2
:10179000102B036803D099600068C26030BD9A6066
:1017A0000068C16030BD10B5002000F007F800F0FF
:1017B0007F01BDE81040072000F042B811B583B0AA
:1017C0004FF47A74012303AAD0210B48009401F04E
:1017D00091F9012301AAD0210748009401F068F88B
:1017E0009DF8040004B000F00F01000900EB800038
:1017F00001EB4000C0B210BD2801002010B5002050
:10180000FFF7DCFF0D4C20700120FFF7D7FF607061
:101810000220FFF7D3FFA0700320FFF7CFFFE07097
:101820000420FFF7CBFF20710520FFF7C7FF607191
:101830000620FFF7C3FFA07110BD00009400002038
:101840001CB50A22B1FBF2F302FB1313B1FBF2F158
:101850008DF8040003EB01114FF47A708DF8051038
:101860000090022301AAD021014801F043F91CBDD8
:101870002801002010B500210846FFF7E1FF0D4CBC
:1018800001206178FFF7DCFFA1780220FFF7D8FF85
:10189000E1780320FFF7D4FF21790420FFF7D0FF80
:1018A00061790520FFF7CCFFA179BDE81040062043
:1018B000FFF7C6BF94000020704730B504464FF4D0
:1018C0007A7502E0284600F005F8641EA4B2F9D249
:1018D00030BD0000044900220B685A6209684A6A58
:1018E0008242FCD3704700007C0100202DE9F047C4
:1018F0009E4A9F481146A1F15C0490F9007091F94D
:1019000002C090F901301679E18E90F902000125AC
:101910006EB192F90160864209D192F900209A4293
:1019200005D10A2F03DA8C4501DD84F8205000260A
:101930008C4501DA84F820608C4A521D944692F856
:1019400004809CF902C0B8F1000F0DD092F901801B
:10195000804509D192F900209A4205D10A2F03DA75
:101960008C4501DD84F821508C4501DA84F8216032
:101970007E4A0C3AA2F1500192F902C0CF6B543169
:10198000A1F11C09844503D192F90380984501DD3A
:1019900084451FDA91F902C0844503D191F90310FF
:1019A000994201DA84452ADD904692F9000005F05B
:1019B00057FA394605F06CFB01D284F82C5098F99F
:1019C000010005F04DFAE16B05F062FA17D284F8D8
:1019D0002C6014E0884691F9000005F041FA394680
:1019E00005F056FB01D284F82D5098F9010005F05E
:1019F00037FAE16B05F04CFA01D284F82D604F46BE
:101A000099F9000005F02CFA216C05F041FA01D299
:101A100084F82E5097F9010005F022FA216C05F0A8
:101A200037FB01D884F82E60504F94F82300DFF87C
:101A30004481103F50B194F82500A0B30022082142
:101A4000404600F066FE84F8315034E094F82000FF
:101A500094F82110084307D000220821404600F0E6
:101A600058FE84F8315006E001220821404600F07B
:101A700050FE84F8316094F82C0094F82D1008433F
:101A800007D000221021404600F043FE84F82F507A
:101A900006E001221021404600F03BFE84F82F6052
:101AA00094F82E001BE0FFE701220821404600F0D9
:101AB00030FE84F8316094F8240038B100221021FF
:101AC000404600F026FE84F82F5006E00122102147
:101AD000404600F01EFE84F82F6094F8260038B1CE
:101AE00000222021404600F014FE84F8305006E029
:101AF00001222021404600F00CFE84F8306097F966
:101B0000030005F0ADF9216C05F0C2FA02D284F8A9
:101B1000275001E084F8276097F9020005F0A0F94A
:101B2000216C05F0B5F902D284F8285001E084F860
:101B3000286097F9010005F093F9E16B05F0A8FA28
:101B400002D284F8295001E084F8296097F9000056
:101B500005F086F9E16B05F09BF903D284F82A5071
:101B6000BDE8F08784F82A60FAE700005C000020F6
:101B700094000020000C014072B6FEE706490020E8
:101B8000C8610648016941F004010161016941F041
:101B900040010161704700009002002000200240D7
:101BA000064A0021D16106490A6942F002020A612F
:101BB0004861086940F040000861704790020020C9
:101BC00000200240044B0022DA61044A136943F00A
:101BD0000103136101807047900200200020024041
:101BE00014480022C168CB06134904D5CA6942F0E3
:101BF0000202CA611022C3685B0705D5CB6943F0B6
:101C00000103CB6142F00402C369DB0707D0CB6953
:101C100043F00403CB61C16921F00101C161A2F568
:101C20008071013901D0C2607047C16921F00101A2
:101C3000C1617047002002409002002070B5054647
:101C400000F06CFD0646114C09E0681C07D025B178
:101C500000F064FD801BA84201D9032070BDE0683C
:101C6000C007F2D1E068800601D52020E060E0687E
:101C7000C00605D4E069C00702D1E068400703D57B
:101C8000FFF7AEFF012070BD002070BD00200240B4
:101C900010B586B0044600F033FC0120CDE90240C7
:101CA00001900020009004A9684600F08BFB00F032
:101CB000DDFB06B010BD10B50023521C04E030F867
:101CC000134021F8024B5B1CB3EB520FF7DB10BD46
:101CD0002DE9F04116460D46074600F011FC0024A0
:101CE000761C09E02A8807EB44010023012000F05C
:101CF000C7FB641CE4B2AD1CB4EB560FF2D3BDE8D5
:101D0000F04100F0B3BB0000F8B50024009490F857
:101D100024202546012A12D0012280F824204A6876
:101D20001F23072A0DD20668776B521E02EB820230
:101D300093409F430B6893401F43776319E0022051
:101D4000F8BD06680D2A0AD2376BD21F02EB820259
:101D500093409F430B6893401F43376309E0F76A42
:101D60000D3A02EB820293409F430B6893401F435E
:101D7000F7620A68072306680A2A0AD3F7680A3A4C
:101D800002EB420293409F438B6893401F43F760EE
:101D900008E0376902EB420293409F438B6893400F
:101DA0001F4337610A68102A01D0112A20D1124B33
:101DB00002689A4217D193681B0219D4936843F4BE
:101DC000000393600968102912D10C490C4A096874
:101DD000B1FBF2F101EB8101490000E0491E0091E5
:101DE0000029FBD104E0816A41F0200181620124D5
:101DF00080F824502046F8BD0024014090000020C7
:101E000040420F0070477047704700002DE9F041D5
:101E10004FF0000704003D467ED0A06A002628B996
:101E2000E66284F82460204600F07EF82046FFF742
:101E3000FBFAA16AC90600D420B1A06A40F01000E4
:101E4000A06269E0A16A21F4885141F00201A16217
:101E50006268E169237B0A4347EA43010A43A168B8
:101E60004FF48077B94209D0012907D05FF0000113
:101E700094F814C0BCF1010F02D00AE03946F7E72C
:101E8000F3B1A36A43F02003A362E36A43F00103C2
:101E9000E3622368D3F804C02CF4694C4CEA010CCB
:101EA000C3F804C021688B68DFF870C003EA0C0334
:101EB00013438B60A168B9420BD0012909D00CE013
:101EC000DFF85CC0A3690CEB43330B4343F40061C0
:101ED000DFE7218A0D05A5F580152168CB6A23F47B
:101EE00070032B43CB62216889680E4B19409142E5
:101EF00008D1E662A16A21F0020141F00101A1626C
:101F0000BDE8F081A06A20F0020040F01000A0625D
:101F1000E06A40F00100E0620120F1E7FDF7E1FF37
:101F200000E0FFFFFE0E1FFF70B586B000250646DD
:101F3000009501950295039500681A4988422ED1B3
:101F40001949886940F400708861886900F400705C
:101F50000490886940F0040088618869694600F04F
:101F60000400049002200090032001900F4800F02C
:101F7000DBFA104C0E48C4E900058020C4E9025089
:101F800040002061800060612020C4E906052046F1
:101F900000F0B2F908B1FFF7EFFD3462666206B0F7
:101FA00070BD000000240140001002400008014004
:101FB000080002404C0200202DE9F0478946044603
:101FC0003B4900683B4F0E1D9046884201D0B84205
:101FD00007D1306810F4702F03D001252846BDE8E2
:101FE000F08794F8240001280CD0012084F8240004
:101FF0002046FFF77DFA05004FF0000004D084F87A
:102000002400EBE70220EAE7A16A40F6016291436F
:1020100041F48071A1622168B94218D1326812F48A
:10202000702F14D0A16A41F48011A1623168490572
:1020300005D5A16A21F4005141F48051A162A16A41
:10204000C9040AD5E16A21F00601E16206E0A26A4C
:1020500022F48012A2624968E9E7E06284F8240071
:10206000216A15488862216A1448C862216A1448A6
:10207000086321686FF0020008602068816841F4FD
:1020800080718160216843464A464C31206A00F0E5
:1020900061F920688168C1F342410729816803D052
:1020A00041F48011816099E741F4A001FAE7000052
:1020B00000240140002801407F140008E7140008B4
:1020C000CD14000810B590F821100022022905D087
:1020D0000421816380F82020012010BD01680B6875
:1020E00023F00E030B6001680B6823F001030B6003
:1020F00090F84030C46B012101FA03F3636080F86B
:10210000211080F82020104610BD000010B590F876
:1021100021100024022903D00421816301243DE021
:1021200001680A6822F00E020A6001680A6822F05B
:1021300001020A601A4A0168914201D1012121E09D
:10214000174A1432914201D110211BE0144A28325F
:10215000914201D1891515E0114A3C32914201D1D9
:1021600089140FE00E4A5032914202D14FF480316F
:1021700008E00B4A6432914202D14FF4801101E031
:102180004FF08071064A083A5160012180F8211011
:10219000002180F82010416B01B18847204610BD16
:1021A000080002402DE9F05FC16B0C6801680B6804
:1021B000D0F840C0042202FA0CF2494DDFF824A105
:1021C000494E4A4FDFF828B1DFF828E122422CD0EF
:1021D0005A072AD50A68920603D40A6822F0040234
:1021E0000A600168A94201D1042219E0514501D1D8
:1021F000402215E0B14202D14FF4806210E0B942B2
:1022000002D14FF480420BE0594502D14FF48022B5
:1022100006E0714502D14FF4800201E04FF0806288
:102220002F4908394A60C16A3BE04FF0020808FABA
:102230000CF818EA040F4FF000094FF0010235D0F6
:102240005FEA837832D50B689B0605D40B6823F0D0
:102250000A030B6080F821200168A94201D1022203
:1022600019E0514501D1202215E0B14202D14FF4CD
:10227000007210E0B94202D14FF400520BE0594510
:1022800002D14FF4003206E0714502D14FF4001242
:1022900001E04FF00072124908394A6080F820903E
:1022A000816A00291AD0BDE8F05F0847082505FAC1
:1022B0000CF5254212D01B0710D50B6823F00E0336
:1022C0000B6090F84010C36B02FA01F15960826311
:1022D00080F8212080F82090016BE2E7BDE8F09FB4
:1022E000080002401C00024030000240440002404E
:1022F000580002406C00024030B528B308C81349AA
:1023000014221944B1FBF2F18900C16310498163C1
:10231000022141771A6843F6F0718A43D0E900142C
:102320002143D0E902452C432143046921434469F8
:102330002143846921431143196000214163012233
:1023400042770177084630BD012030BDF8FFFDBF60
:102350000000024070B5044690F8200000250128D6
:102360000CD0012084F8200094F821600020012E78
:1023700006D084F820000225284670BD022070BDDA
:10238000022684F82160A0632068066826F0010612
:1023900006602046FFF7F2F9E06A0028206801682D
:1023A00002D041F00E0106E021F004010160206836
:1023B000016841F00A0101602068016841F00101F3
:1023C0000160D9E72DE9F047054626480F4601266A
:1023D000017E01290FD00121814601762868DFF8AE
:1023E00088804CF25034022808D0A2462046FFF7DD
:1023F00025FCA8B131E00220BDE8F0872046FFF7B8
:102400001DFC08BB0120FFF7B9FB2046FFF716FCB7
:10241000D8F81010064621F00401C8F810101CE08E
:102420004FF0FF303860AC6811E02046FFF7B8FB92
:102430005046FFF703FCD8F81010060021F0020107
:10244000C8F8101001D03C6007E004F58064D5E9BD
:10245000020100EB8120A042E7D8002189F8181082
:102460003046C9E79002002000200240034801697D
:1024700041F080010161002070470000002002400F
:102480002DE9F05F07461C4888460024017E15466A
:102490001E46012909D00121814601764CF2503AAD
:1024A0005046FFF7CBFB18B122E00220BDE8F09FB9
:1024B000012F02D0022F00D00427D346DFF83CA022
:1024C000220128463146FDF78FFE81B208EB440019
:1024D000FFF778FB5846FFF7B1FBDAF8102022F03F
:1024E0000102CAF8102018B9641CE4B2BC42E7D358
:1024F000002289F81820D9E790020020002002402D
:10250000064900200A69120607D5054A4A60054AAD
:102510004A600969090600D5012070470020024081
:1025200023016745AB89EFCD2DE9F84FDFF8B8916E
:10253000002409F1040A0AF1040B23460F270BF1CA
:10254000040EC9E00125A5402A40AA427DD1674E6C
:10255000D1F804C0ACEB0608B44532D014DCBCF1B1
:10256000030F3AD009DCBCF1000F2AD0BCF1010FF7
:102570001CD0BCF1020F31D11DE0BCF1110F17D0FE
:10258000BCF1120F2AD119E0B8F5881F19D006DC6A
:10259000B8F5803F15D0B8F5801F1FD111E0B8F510
:1025A000001F0ED0B8F5041F18D10AE0CB6815E063
:1025B000CB681B1D12E0CB6808330FE0CB680C33EF
:1025C0000CE08B682BB1012B4FF0080303D0456161
:1025D00004E0042302E0056100E00023FF2A01D8A3
:1025E000064601E000F104064FEA840501D9A5F191
:1025F0002005D6F8008007FA05FC28EA0C0803FA43
:1026000005F548EA0508C6F800804D68ED0062D57A
:10261000374DAE6946F00106AE61AD6924F00306A0
:1026200005F001050095334D06EB050CDCF808506C
:10263000A607360F07FA06F825EA0805DFF8B8807E
:10264000404503D14FF0000817E044E0DFF8AC80CC
:10265000404502D14FF001080FE0DFF8A48040456B
:1026600002D14FF0020808E0DFF89880404502D11F
:102670004FF0030801E04FF0040808FA06F848EAB2
:102680000508CCF808804D68D9F80060ED034D4688
:1026900001D5164300E096432E604D68DAF80060DD
:1026A000AD03554601D5164300E096432E604D68B4
:1026B000DBF80060ED025D4601D5164300E096436D
:1026C0002E604D68DEF80060AD02754601D51643F8
:1026D00000E096432E60641C0D682A46E5407FF4B6
:1026E00031AFBDE8F88F0000000401400000111078
:1026F000001002400000014000080140000C0140B1
:1027000000100140001401408068084000D0012002
:1027100070470AB1016170470904FBE7014880680E
:10272000704700008400002070B5040025D094F8A4
:102730003D00002520B984F83C50204600F070FA96
:10274000242084F83D002068016821F00101016027
:102750002068016841F4004101602068016821F4AB
:102760000041016000F02EFC4D4A6168914201D8A1
:102770004C4900E04C49884201D2012070BD4B49D0
:102780002368B0FBF1F15E6826F03F060E435E6001
:102790006368934206D94FF4967359434FF47A73A2
:1027A000B1FBF3F12368491C1E6A26F03F06314352
:1027B00019626168914210D84900401EB0FBF1F2E5
:1027C000521CC2F30B02042A01D2042022E0B0FB07
:1027D000F1F0401CC0F30B001CE0A268F2B301EB67
:1027E000C10303EB0116431EB3FBF6F35B1C43F47A
:1027F00080431B0549D092B301EBC10202EB0111EA
:10280000401EB0FBF1F0401CC0F30B0040F48040D0
:1028100040F400402168CA694CF6FF739A431043A4
:10282000C861D4E9071001432068026822F0C002A1
:1028300011430160D4E9030101432068826848F232
:10284000FF339A4311438160D4E9050108432168AD
:10285000CA6822F0FF021043C86001E00EE016E0F3
:102860002068016841F0010101602564202084F89E
:102870003D00256384F83E50002070BD01EB410609
:10288000431EB3FBF6F35B1CB3E70120C2E701EB89
:102890004101401EB0FBF1F0401CC0F30B00B7E754
:1028A000A086010080841E0000093D0040420F0008
:1028B0002DE9F84F0025DDF82890984617468A46FE
:1028C00004460095FFF72AFF064694F83D002028AD
:1028D0007AD11923012283492046009602F028FB71
:1028E0000028F5D194F83C0001286DD0012084F82F
:1028F0003C0020680168C90703D1016841F001016B
:1029000001602068016821F400610160222084F8E0
:102910003D00102084F83E0025646762A4F82A80F8
:10292000608D20857048E06233464A465146204615
:1029300002F014FA00287DD1208DDFF8B081202725
:1029400068B1012814D00228206801681ED041F423
:10295000806101602068416980690090B5E020686D
:10296000416981690091016841F400710160ACE046
:102970002068016821F48061016072B620684169B5
:1029800081690091016841F400710AE041F400613D
:10299000016072B62068416981690091016821F483
:1029A0008061016062B690E0032868D801280CD0ED
:1029B00002284B464FF000024146204600960FD0B9
:1029C00002F0B6FAB0BB10E08AE032464946204633
:1029D00002F02DFB70BB20680069616A08706BE033
:1029E00002F0A6FA30BB72B634E02068016821F428
:1029F0008061016072B620680069616A0870606A6F
:102A0000401C6062208D401E2085608D401E6085C8
:102A1000374846F2A8110068B0FBF1F0C0EBC000E7
:102A200000EB80000090401E009008D020684069B4
:102A3000C04300E029E040070CD50098F3E744F8D4
:102A4000305F6773A573206940F02000206162B693
:102A500025731AE02068016841F400710160206864
:102A60000069616A0870606A401C6062218D491EBD
:102A70002185618D491E618562B621681AE0324662
:102A80004946204602F0D3FA10B10120BDE8F88F84
:102A900020680069616A0870606A401C6062218D6C
:102AA000491E2185618D491E618521684A69D2438D
:102AB00052070AD409690170606A401C6062208D67
:102AC000401E2085608D401E6085208D00287FF48B
:102AD0006BAF84F83D7084F83E5084F83C50D5E7E5
:102AE0000220D3E7020010000000FFFF04000100F5
:102AF000900000202DE9F84F1F4690468A46044674
:102B0000DDF82890FFF70AFE054694F83D002028DE
:102B10007FD11923012240492046009502F008FA8E
:102B2000002876D194F83C00012872D0012084F866
:102B30003C0020680168C90703D1016841F0010128
:102B400001602068016821F400610160212084F89F
:102B50003D00102084F83E0000262664C4F824803E
:102B60006785608D20852D48E0622B464A46514698
:102B7000204602F069F990B92068416980690090A7
:102B800036E02A464946204602F084FA50B1206CCD
:102B9000042804D12068016841F40071016001201B
:102BA000BDE8F88F606A216800780861606A401C9F
:102BB0006062618D491E6185218D491E89B2218522
:102BC00022685369DB435B070BD451B10078106175
:102BD000606A401C6062608D401E6085208D401ED2
:102BE00020852A464946204602F07CF90028CED1AD
:102BF000208D0028C5D154F83D0B016841F40071C7
:102C00000160202004F81E09E67766770020C7E7F8
:102C1000FFE70220C4E70000020010000000FFFFF1
:102C200010B586B0002100910191029103910068D6
:102C30000F4988421AD10F4CA06940F00800A061EA
:102C4000A069694600F008000490C020009012209E
:102C50000190032003900848FFF766FCE06940F408
:102C60000010E061E06900F40010049006B010BDAF
:102C70000054004000100240000C014002488168EE
:102C8000027811448160704784000020074810B525
:102C9000016841F010010160032000F075F80F2079
:102CA00000F006F800F024F8002010BD00200240DB
:102CB00070B50D4D04464FF47A712878B1FBF0F0F1
:102CC0000A490968B1FBF0F000F062FB48B9102C2A
:102CD00007D200222146501E00F036F800206C601A
:102CE00070BD012070BD0000840000209000002015
:102CF0000C4808B5816941F001018161816901F0E9
:102D000001010091C16941F08051C161C06900F0C9
:102D1000805000900448416821F0E06141F000716A
:102D2000416008BD0010024000000140002809DB9E
:102D300000F01F02012191404009800000F1E020D5
:102D4000C0F8001170470000F0B40E4B1B680C4631
:102D5000C3F30223C3F10705042D00D90425191D6F
:102D6000072901D2002300E0DB1E012606FA05F147
:102D7000491E214099409E40761E16403143F0BCCA
:102D800003F027BC0CED00E0064900F007020868DC
:102D90004FF6FF03184040EA0220034A1043086040
:102DA000704700000CED00E00000FA052DE9F84343
:102DB00005460078354CC00754D0E0690026C000B5
:102DC00008D4E06940F08050E061E069012600F03D
:102DD000805000902E480168C90512D401688046D1
:102DE00041F480710160FFF799FC074605E000BFE0
:102DF000FFF794FCC01B642823D8D8F80000C00556
:102E0000F6D5206A10F4407021D0A98801F44071F1
:102E100081421CD0206A1F49012220F440700A60C0
:102E200000220A602062C00711D0FFF777FC074636
:102E300041F2883808E000BFFFF770FCC11B414534
:102E400002D90320BDE8F883206A8007F4D5206A00
:102E5000696820F44070084320621EB1E06920F0E8
:102E60008050E0612878800705D56068A96820F463
:102E70004040084360602878C00605D56068E9686E
:102E800020F48000084360600020DBE7001002406F
:102E900000700040400442422DE9F0470F46050013
:102EA00061D0434E306800F00700B84209D2306864
:102EB00020F0070038433060306800F00700B84267
:102EC00051D128683B4C810712D5400703D5606873
:102ED00040F4E06060602878000703D5606840F443
:102EE000605060606068A96820F0F000084360608E
:102EF0002878C00728D06868012810D021680228E7
:102F000010D0890700292EDA616821F003010143FE
:102F10006160FFF703FC804641F288390DE02168CB
:102F20008903EFE78901EDE7FFF7F8FBA0EB080164
:102F3000494502D90320BDE8F0876068696800F060
:102F40000C00B0EB810FEFD1306800F00700B84201
:102F50000BD9306820F0070038433060306800F04B
:102F60000700B84201D00120E5E72878400705D5E1
:102F70006068E96820F4E060084360602878000732
:102F800006D56068296920F4605040EAC10060609D
:102F900000F038F86168084AC1F30311515CC84079
:102FA0000649086006480068FFF782FE0020C2E775
:102FB0000020024000100240F6710008900000203E
:102FC000880000200448054900684968044AC1F3A4
:102FD0000221515CC8407047900000200010024060
:102FE000067200080448054900684968044AC1F3AC
:102FF000C221515CC8407047900000200010024080
:103000000672000812A185B00FC98DE80F0014A048
:10301000144A006804905168134801F00C03042B13
:1030200010D0082B0ED1C1F38343C9031DF8030050
:103030000AD5516804AAC1F34041515C0A4A504381
:10304000B0FBF1F005B0704708494843FAE70000CB
:1030500002030405060708090A0B0C0D0E0F1010D9
:10306000010200000010024000127A0000093D0039
:103070002DE9F84F040070D02078C04DC00749D02A
:103080006868C0F38100012807D06868C0F3810038
:10309000022809D16868C00306D52868800339D59D
:1030A00060680028E7D035E06068B0F5803F0BD05D
:1030B00010B1B0F5A02F11D0286820F4803028601E
:1030C000286820F4802002E0286840F480302860DE
:1030D000606890B1FFF722FB06460AE0286840F4DA
:1030E00080202860F0E700BFFFF718FB801B6428F2
:1030F00073D828688003F7D50CE0FFF70FFB06466E
:1031000005E000BFFFF70AFB801B6428F0D82868A1
:103110008003F7D420789A4E80074FF001094FF0D2
:10312000000839D5686810F00C0F07D06868C0F344
:103130008100022809D16868C00306D42868800786
:1031400014D52069012808D110E02069B0B1C6F873
:103150000090FFF7E3FA074605E00AE1FFF7DEFA21
:10316000C01B0228C4D828688007F7D52868616981
:1031700020F0F80040EAC10028600DE0C6F80080A9
:10318000FFF7CCFA074604E0FFF7C8FAC01B022895
:1031900023D828688007F7D4207800072CD57948F1
:1031A000A169D9B1C0F80090FFF7B8FA074604E06A
:1031B000FFF7B4FAC01B02280FD8686A8007F7D55A
:1031C00071484FF4FA510068B0FBF1F0009000BF75
:1031D0000098411E0091FAD20EE080E0C0F8008015
:1031E000FFF79CFA074604E0FFF798FAC01B022895
:1031F00075D8686A8007F7D42078400760D5E869F9
:103200000027C00008D4E86940F08050E861E86910
:10321000012700F0805000905C480168C90513D474
:103220000168834641F480710160FFF777FA8246B6
:1032300006E000BFFFF772FAA0EB0A0064284ED840
:10324000DBF80000C005F5D5E06801280AD008B118
:10325000052813D0286A20F001002862286A20F08F
:10326000040002E0286A40F001002862E06841F2B0
:10327000883B98B1FFF752FA82460BE0286A40F08B
:1032800004002862EEE700BFFFF748FAA0EB0A014E
:1032900059455AD8286A8007F6D50CE0FFF73EFA60
:1032A000824605E0FFF73AFAA0EB0A0159454CD8EF
:1032B000286A8007F6D41FB1E86920F08050E861E1
:1032C000E06988B36968C1F38101022944D002280A
:1032D000C6F8608004D0FFF721FA044638E034E0F5
:1032E000FFF71CFA074604E0FFF718FAC01B022894
:1032F0002BD828688001F7D4206AB0F5803F05D12B
:103300006868A16820F4003008436860D4E90801C7
:103310000843696821F4741108436860C6F8609036
:10332000FFF7FCF9044606E025E000BFFFF7F6F9D9
:10333000001B022809D828688001F7D51BE000BFD0
:10334000FFF7ECF9001B022802D90320BDE8F88F33
:1033500028688001F4D40EE00128F7D06868226A5A
:1033600000F48031914204D1616A00F47010884207
:1033700001D00120EAE70020E8E700000010024049
:103380000000424280044242900000200070004051
:1033900010B5401EB0F1807F01D3012010BD4FF069
:1033A000E02460610F21601703F013F90020A06191
:1033B00007202061002010BD7047704770B590F85D
:1033C0003C20012A26D0012480F83C40022280F8CB
:1033D0003D2003685A689D6822F070060A683243EF
:1033E0005A600D4B02689A4208D0B2F1804F05D066
:1033F0000A4B9A4202D00A4B9A4204D1496825F0FE
:1034000080031943916080F83D40002180F83C1012
:10341000084670BD022070BD002C01400004004031
:103420000008004010B5040003D094F83D0010B12E
:1034300007E0012010BD002084F83C00204600F089
:103440001FF8022084F83D00211D206802F092FE42
:10345000012084F8460084F83E0084F83F0084F898
:10346000400084F8410084F8420084F8430084F866
:10347000440084F8450084F83D00002010BD0000A1
:1034800008B500680B49884212D10B48C16941F068
:103490000401C161C069002200F004000090022113
:1034A0001E20FFF751FCBDE808401E20FFF73EBC80
:1034B00008BD0000000800400010024090F83D10D8
:1034C000012901D001207047022180F83D100068D9
:1034D0000B49884208D0B0F1804F05D00949884295
:1034E00002D00949884204D1816801F00701062908
:1034F00003D0016841F00101016000207047000025
:10350000002C0140000400400008004070B5044653
:1035100090F83C00012817D0012584F83C50022087
:1035200084F83D002068826822F0770222F47F420E
:1035300082600868502830D00DDC20284DD005DC92
:1035400098B310283BD148E0022070BD302844D009
:10355000402834D139E0602828D0702806D0B0F552
:10356000805F2CD0B0F5005F29D10AE0CB68D1E9AB
:103570000121206802F034FE2068816841F0770163
:1035800009E0CB68D1E90121206802F029FE20681A
:10359000816841F48041816011E0CA68496820680F
:1035A00002F030FE5021206807E016E0CA68496842
:1035B000206802F038FE6021206802F01BFE84F8CB
:1035C0003D50002084F83C0070BDCA6849682068FE
:1035D00002F018FE40212068EFE7226801461046FD
:1035E000EBE7704770B50446006801694FF00005CD
:1035F000C943890715D4C168C943890711D4E91E95
:10360000016101202077206880698007204602D070
:10361000FFF7E7FF04E000F098F8204600F096F886
:10362000257720680169C943490717D4C168C94390
:10363000490713D46FF0040101610220207720684C
:10364000806910F4407F204602D0FFF7CAFF04E0F3
:1036500000F07BF8204600F079F8257720680169B2
:10366000C943090716D4C168C943090712D46FF0CA
:1036700008010161042020772068C0698007204686
:1036800002D0FFF7AEFF04E000F05FF8204600F044
:103690005DF8257720680169C943C90617D4C16858
:1036A000C943C90613D46FF01001016108202077C7
:1036B0002068C06910F4407F204602D0FFF791FFD8
:1036C00004E000F042F8204600F040F8257720683A
:1036D0000169C943C90708D1C168C943C90704D1F1
:1036E000891E0161204600F032F820680169C94353
:1036F000090609D4C168C943090605D46FF08001E1
:1037000001612046FFF758FE20680169C943490658
:1037100009D4C168C943490605D46FF0400101616D
:10372000204600F015F820680169C94389060BD4CA
:10373000C168C943890607D46FF0200101612046A2
:10374000BDE87040FFF739BE70BD704770477047E5
:10375000704738B5044690F83E0020281CD181B14E
:103760007AB194F83C00012816D0012084F83C007E
:103770002063204602F0A8FE002803D1216B012916
:1037800001D0012038BD21680A684A680092CA68E1
:1037900042F01002CA6038BD022038BD02493C2206
:1037A00001F58E70FFF7D5BFA8000020704700001C
:1037B000F8B5026804461068D168536910F00F0F1D
:1037C0004FF0000553D003F0010601F49077374322
:1037D0005FD0C20705D0CA0503D5226C42F00102B2
:1037E0002264420705D5DA0703D0226C42F00202B8
:1037F0002264820705D5DA0703D0226C42F0040266
:103800002264020707D501F02002324303D0226C64
:1038100042F008022264226C002A34D0800604D5CB
:10382000880602D5204602F098FD20684069216C88
:10383000C0F38010090700D430B3204602F06CFDBD
:103840002068416949061BD5416921F04001416169
:10385000A06BA8B158494163A06BFEF757FC002844
:1038600011D0A06B416B01B0BDE8F0400847830662
:103870000FD58B060DD52046BDE8F84002F06DBD92
:103880002046FFF793FFF8BD2046FFF78FFF256422
:10389000F8BD266B2023012E52D1C60650D5CE0688
:1038A0004ED5106850680090506940062AD5A16B2B
:1038B000086840680004000CEAD0A68D8642E7D96B
:1038C000E0858869202818D0D06820F48070D06006
:1038D0002068416921F0010141612068416921F0BE
:1038E0004001416184F83E3025632068C16821F0C1
:1038F0001001C160A06BFEF7E5FBA08DE18D401AC1
:1039000081B219E0A08DE18D401A81B2E08D0028CE
:10391000BED00029BCD0D06820F49070D060206860
:10392000426922F00102426184F83E30256320683A
:10393000C26822F01002C2602046FFF72FFFF8BDD8
:1039400005062BD50D0629D594F83D002128F6D182
:10395000A068B0F5805F01D12069B0B1206A411C38
:103960002162216800784860E08C401E0004000C51
:10397000E084E4D12068C16821F08001C160206842
:10398000C16841F04001C160F8BD206A0088C0F301
:1039900008005060206A801C2062E5E74006F3D5ED
:1039A0004806F1D5D168204621F04001D16084F865
:1039B0003D3000F0E8F8F8BD4B62000870B5040037
:1039C00004D094F83D00002510B106E0012070BD40
:1039D00084F83C50204600F023F8242084F83D0071
:1039E0002068C16821F40051C160204602F010FD3A
:1039F0002068016921F4904101612068416921F04A
:103A00002A0141612068C16841F40051C160256408
:103A1000202084F83D0084F83E00002070BD0000A6
:103A200070B586B000250646009501950295039570
:103A30000068224988423ED12149C86940F40030DB
:103A4000C861C86900F400300490886940F004003F
:103A5000886188691B4C00F00400049004200090E9
:103A6000022001900320039069462046FEF75CFD8A
:103A70000820CDE90005694620460295FEF754FD71
:103A8000124C1148C4E900058020C4E902502561A8
:103A90006561A5612046E561FEF72EFC08B1FEF7E1
:103AA0006BF8B4630022114626206662FFF74CF9DA
:103AB0002620FFF73BF906B070BD0000004400402F
:103AC00000100240000801406C0002400802002083
:103AD000704770472DE9F843044690F83D001F46B3
:103AE00016460D4620284CD1C5B1BEB194F83C0015
:103AF000012846D0012084F83C004FF00008C4F8AB
:103B00004080212084F83D00FEF708FEA68481460F
:103B1000E684A068B0F5805F03D004E00120BDE832
:103B2000F883206928B12E465FF0000584F83C80B8
:103B30000EE00026FAE78021204602F0FDFCA0B945
:103B4000AEB116F8010B21684860E08C401EE0849D
:103B5000E08C4B464FF0000200970028EBD14FF06D
:103B60004001204602F0E8FC30B10320D7E735F8E9
:103B7000020BC0F30800E6E7202084F83D00002097
:103B8000CDE70220CBE77047FEE700002DE9F05FAC
:103B9000FE4DFF4C05F14C09287D05F15C0A05F14D
:103BA000610B05F1500605F15408002830D0687DFE
:103BB000002877D0A87F002875D00021084601F0A2
:103BC00093FEF4A001F0E0FE00210F2001F08CFE36
:103BD000F4A001F0D9FE0121002001F085FEF3A040
:103BE00001F0D2FEF2A001F0CFFE0221002001F090
:103BF0007BFEF2A001F0C8FEF1A001F0C5FE03219A
:103C0000002001F071FEF1A001F0BEFEF0A0C3E3C0
:103C100095F9070095F90910884201D001F042FE9C
:103C200095F90900E87195F82210002950D0A87F75
:103C300000283BD00021084601F056FEE8A001F024
:103C4000A3FE00210F2001F04FFED6A001F09CFE44
:103C50000121002001F048FEE4A001F095FE95F856
:103C6000240008B1E4A000E0E4A001F08DFE0221F0
:103C7000002001F039FEE2A001F086FE95F8250053
:103C800008B1DDA000E0DDA001F07EFE03210020F0
:103C900001F02AFEDDA001F077FE95F8260018B1AC
:103CA000D5A05AE37AE35FE3D4A0FAE728790028A5
:103CB0007ED001287DD0022808D003287AD10021A7
:103CC000D7E30A2001F010FED3A0EAE70321F8E7CA
:103CD000002870D10021042001F006FECFA001F0E1
:103CE00053FEE88E01F0D4FECFA001F04DFE01217D
:103CF000002001F0F9FD95F82B0000287DD0CCA024
:103D000001F042FEE86B01F089FEE86BC94F10F14B
:103D1000FF4F05D2B84203DC0121052001F0E4FD8C
:103D2000DF2001F02DFEC4A001F02EFE01210C20A9
:103D300001F0DAFDC2A001F027FE286C01F06EFE52
:103D4000286C10F1FF4F05D2B84203DC01210F208F
:103D500001F0CAFDBBA000BF01F016FE0221062043
:103D600001F0C2FD94F902000A2790FBF7F0C0B2FF
:103D700040F0300001F004FE94F9020090FBF7F1EE
:103D800007FB1100C0B240F0300001F0F9FD3A200D
:103D900001F0F6FD94F9010090FBF7F0C0B240F09D
:103DA000300001F0EDFD94F9010090FBF7F103E024
:103DB000E8E3E8E314E375E007FB1100C0B240F06C
:103DC000300001F0DDFD3A2001F0DAFD94F9000049
:103DD00090FBF7F0C0B240F0300001F0D1FD94F953
:103DE000000090FBF7F107FB1100C0B240F030007B
:103DF00001F0C6FD0321022000E057E001F074FD50
:103E0000624894F90310683000EB810050F8040C0C
:103E100001F0BAFD89A001F0B7FD94F9040090FB10
:103E2000F7F0C0B240F0300001F0AAFD94F90400B0
:103E300090FBF7F107FB1100C0B240F0300001F039
:103E40009FFD2F2001F09CFD94F9050090FBF7F0F9
:103E5000C0B240F0300001F093FD94F9050090FBF2
:103E6000F7F107FB1100C0B240F0300001F088FD0F
:103E700075A001F089FD94F9060090FBF7F0C0B23F
:103E800040F0300001F07CFD94F9060090FBF7F162
:103E900007FB1100C0B240F0300001F071FD5EA0E0
:103EA00001F072FD687A012802D068E067A053E74C
:103EB0006C48FCF7ACFA30B90021084601F014FD5B
:103EC00069A001F061FD0024664F53E0CCB1122CD3
:103ED00002D2385D01F054FD122C17D0A4F112006B
:103EE000102802D2385D01F04BFD222C13D0A4F132
:103EF0002200092802D2385D01F042FD2B2C0FD0A0
:103F000012E00021084601F0EFFCE2E70121002069
:103F100001F0EAFCE6E70221002001F0E5FCEAE717
:103F20000321002001F0E0FC4E48FCF770FA38282D
:103F300006D1A4F12B000D2802D8385D01F020FD38
:103F40004848FCF764FA392806D1A4F12B000E2862
:103F500002D8385D01F014FD4248FCF758FA3A28BF
:103F600006D1A4F12B000F2802D8385D01F008FD1E
:103F7000641CE4B23B48FCF74AFAA042A6D8687A2F
:103F8000022802D10021084678E0BDE000000020B0
:103F9000940000204D656E752053657474696E67DA
:103FA000000000004558495400000000313A20004C
:103FB0005365742054696D6500000000323A20009A
:103FC000536574205761726E696E6700333A200042
:103FD000536574204175746F204D6F646520000037
:103FE0004D6F6465204D616E75616C0044656E2097
:103FF00053756F693A2000004F4E20004F4646002F
:10400000426F6D204E756F633A20000051756174E8
:104010002047696F3A20000020202000446F204193
:104020006D204461743A200025202020000000000B
:10403000543A0000000020414320202020200000AE
:10404000483A0000252000002F3230004E6F7420C7
:10405000436F6E6E656374204448542020202020F6
:1040600000000000A80000205769666920446973B9
:10407000636F6E6E656374656400000001F034FC6C
:10408000FCA001F081FC0121002001F02DFCFEA02C
:1040900001F07AFC4C4699F9010001F0F9FCDF20AF
:1040A00001F06EFCFAA001F06FFC0221002001F08B
:1040B0001BFCF8A001F068FC94F9000001F0E8FC9A
:1040C000DF2001F05DFCF2A001F05EFC0321002086
:1040D00001F00AFCF1A001F057FC94F9030001F093
:1040E000D7FCAFF2A00001F04FFC03210A2001F041
:1040F000FBFBECA001F048FC94F9020001F0C8FCC5
:10410000AFF2C00001F040FC687A03283AD10021E8
:10411000084601F0E9FBE5A001F036FC0121002092
:1041200001F0E2FBE7A001F02FFC96F9020001F09C
:10413000AFFC3A2001F024FC96F9030001F0A8FC42
:104140000221002001F0D0FBE1A001F01DFC96F956
:10415000000001F09DFCDF2001F012FCCCA001F07A
:1041600013FC0321002001F0BFFBDDA001F00CFCDB
:1041700096F9010001F08CFCDF2001F001FCC4A0E5
:1041800001F002FC687A04283BD10021084601F0C6
:10419000ABFBC6A001F0F8FB0121002001F0A4FB5D
:1041A000D3A001F0F1FB444698F9020001F070FC45
:1041B0003A2001F0E5FB94F9030001F069FC0221CB
:1041C000002001F091FBC2A001F0DEFB94F9000099
:1041D00001F05EFCDF2001F0D3FBADA001F0D4FBC9
:1041E0000321002001F080FBBDA001F0CDFB94F97C
:1041F000010001F04DFCDF2001F0C2FBA4A001F0A2
:10420000C3FB687A05282BD10021084601F06CFB1E
:10421000BAA001F0B9FB0121002001F065FBBCA0B0
:1042200001F0B2FBBD4C94F9000001F031FCDF203D
:1042300001F0A6FBAFF2F41001F0A6FB0221002072
:1042400001F052FBB6A001F09FFB94F9010001F0D0
:104250001FFCDF2001F094FBAFF2182001F094FB6B
:10426000687A06283BD10021084601F03DFBAFA04B
:1042700001F08AFB0121002001F036FBB0A001F023
:1042800083FB9AF804005446012867D0AFF29420CB
:1042900001F07AFB0221002001F026FBAAA001F028
:1042A00073FB94F9010001F0F3FB02210A2001F0F5
:1042B0001BFBA7A001F068FB94F9000001F0E8FBEC
:1042C0000321002001F010FBA3A001F05DFB94F995
:1042D000020001F0DDFBAFF2942001F055FB687A9B
:1042E00007287DD10021084601F0FEFA9EA001F0CA
:1042F0004BFB0121002001F0F7FAA0A001F044FBE4
:104300009BF804005C4601282BD0AFF2103000BFB0
:1043100001F03AFB0221002001F0E6FA8AA001F048
:1043200033FB94F9010001F0B3FB02210A2001F0F4
:10433000DBFA87A001F028FB94F9000001F0A8FB4C
:104340000321002001F0D0FA83A001F01DFB94F9B5
:10435000020001F09DFBAFF2143086E3AFF268304B
:1043600096E7AFF26C30D3E72878052816D2DFE85D
:1043700000F01503050B0D00012100E002210020D3
:1043800001F0B2FA51A007E00321F8E700210F2065
:1043900001F0AAFAAFF23C3001F0F6FAA87E00284C
:1043A00066D0A87FE8B300210F2001F09DFAAFF29C
:1043B0000C4001F0E9FA0221062001F095FA94F987
:1043C00002000A2790FBF7F0C0B240F0300001F085
:1043D000D7FA94F9020090FBF7F107FB110000E017
:1043E000FAE3C0B240F0300001F0CAFA3A2001F01E
:1043F000C7FA94F9010090FBF7F0C0B240F030002A
:1044000001F0BEFA94F9010090FBF7F107FB1100EF
:10441000C0B240F0300001F0B3FA3A2001F0B0FA37
:1044200000E0F5E094F9000090FBF7F0C0B240F036
:10443000300001F0A5FA94F9000090FBF7F107FBBA
:104440001100C0B240F0300001F09AFA03210220BE
:1044500001F04AFA314894F90310303000EB810042
:1044600050F8040C01F090FA23A001F08DFA8BE0D3
:10447000F9E0FDE354686F6E6720736F2063616E2F
:10448000682062616F0000004C5F54656D703A00F7
:1044900043200000485F54656D703A004C5F4875DA
:1044A0006D693A00485F48756D693A0054686F6EEF
:1044B0006720736F20636169206461742064656E96
:1044C0000000000042616E204E67617920202000CC
:1044D0004E6869657420646F206261743A00000060
:1044E0004E6869657420646F207461743A2000001E
:1044F00042616E2044656D202020000054686F6E7C
:104500006720736F20717561742067696F00000008
:10451000446F20616D206261743A200038000020F1
:10452000446F20616D207461743A200054686F6E8E
:104530006720736F20626F6D2067696F2031000004
:1045400054494D4520313A00486F75723A000000D9
:104550004D696E7574653A00446F20616D2062612B
:104560007420626F6D3A000054686F6E6720736F3D
:1045700020626F6D2067696F2032000054494D45FD
:1045800020323A0093E395E394F9040090FBF7F0AE
:10459000C0B240F0300001F0F3F994F9040090FB50
:1045A000F7F107FB1100C0B240F0300001F0E8F96C
:1045B0002F2001F0E5F994F9050090FBF7F0C0B267
:1045C00040F0300001F0DCF994F9050090FBF7F1C0
:1045D00007FB1100C0B240F0300001F0D1F9AFF29A
:1045E000985001F0D1F994F9060090FBF7F0C0B2B1
:1045F00040F0300001F0C4F994F9060090FBF7F1A7
:1046000007FB1100C0B240F0300001F0B9F92AE018
:104610006878082827D2DFE800F02604070E15186E
:104620001B1E0221092001E00221062001F05CF995
:10463000AFF23C1015E00321022001F055F9AFF272
:1046400074100EE003210720F0E703210A20EDE7B4
:1046500003210F20EAE700210F2001F045F9AFF216
:10466000046001F091F9E87EF0B3A87FE8B300217F
:10467000084601F039F9FDA001F086F94C4699F998
:10468000010001F005FADF2001F07AF9AFF2002015
:1046900001F07AF900210F2001F026F9AFF2FC6059
:1046A00001F072F90121002001F01EF9F2A001F0E1
:1046B0006BF994F9000001F0EBF9DF2001F060F9EB
:1046C000AFF2342001F060F90221002001F00CF972
:1046D000ECA001F059F994F9030001F0D9F9AFF217
:1046E0009C6001F051F901E02BE00DE00321002076
:1046F00001F0FAF8E6A001F047F994F9020001F0A0
:10470000C7F9AFF2C0601AE0A878052819D2DFE82F
:1047100000F003050C0E1000002100E0012108202C
:1047200001F0E2F8AFF25C2009E00221F7E7032193
:10473000F5E700210F2001F0D7F8AFF2E06001F0BB
:1047400023F9A87D98B3A87F38B30021084601F06B
:10475000CBF8AFF2A87001F017F9D0A001F014F96E
:1047600000210F2001F0C0F8AFF2C87001F00CF981
:104770000121002001F0B8F8AFF2C07001F004F997
:10478000C9A001F001F90221002001F0ADF8AFF25B
:10479000C47001F0F9F8C7A019E0E878052818D22C
:1047A000DFE800F01703060D0F00002101E010E024
:1047B0000121002001F098F8AFF2F02007E002217B
:1047C000F7E700210F2001F08FF8AFF2707001F0D1
:1047D000DBF8E87D00287DD0A87F00287BD0002171
:1047E000084601F081F8B7A001F0CEF8E87CE0BB04
:1047F0000121002001F078F8B7A001F0C5F80121EF
:104800000A2001F071F8AFF2C87001F0BDF896F916
:10481000020001F03DF901210F2001F065F8B1A07F
:1048200001F0B2F896F9030001F032F902210020FC
:1048300001F05AF8ACA001F0A7F802210A2001F01B
:1048400053F8AFF6040001F09FF8444698F90200CF
:1048500001F01EF902210F2001F046F8A1A001F09D
:1048600093F894F9030001F013F9E87C01282BD1A7
:104870000121002001F038F89DA001F085F8022107
:10488000002001F031F8AFF2B83001F07DF896F970
:10489000000001F0FDF8DF2001F072F8AFF21040E7
:1048A00001F072F80321002001F01EF896A001F03B
:1048B0006BF896F9010001F0EBF8DF2001F060F8E9
:1048C000AFF2344001F060F8E87C02285CD10121AD
:1048D000002001E058E031E001F006F88EA001F080
:1048E00053F80221002000F0FFFFAFF21C4001F05E
:1048F0004BF8444698F9000001F0CAF8DF2001F0B7
:104900003FF8AFF2744001F03FF80321002000F0BF
:10491000EBFF7DA001F038F894F9010001F0B8F840
:10492000DF2001F02DF8AFF2984001F02DF80021C2
:10493000102000F0D9FFAFF6941023E068790A2820
:1049400022D2DFE800F02105070E11141614161903
:10495000012107E0012108E000F0C6FFAFF2684046
:1049600010E002210C20F7E702211120F4E70221D8
:1049700000E003210D20EFE70021102000F0B4FF3C
:10498000AFF6281001F000F8287EA8B3A87FA0B3E6
:104990000021084600F0A8FF65A000F0F5FF012106
:1049A000002000F0A1FF67A000F0EEFF9AF80400DD
:1049B000012823D0AFF6BC1000F0E6FF0221002052
:1049C00000F092FF61A000F0DFFF9BF804000128D7
:1049D00017D0AFF6D81000BF00F0D6FF032108466D
:1049E00000F082FF5BA000F0CFFF03210D2000F05C
:1049F0007BFFAFF6502024E025E005E0AFF608206D
:104A0000DAE7AFF60C20E7E795F90800012806D0B1
:104A1000022806D003280BD0042814D10BE0012172
:104A200000E00221072000F05FFFAFF2605008E0D5
:104A30000321084601E003210D2000F055FFAFF6E9
:104A4000E41000F0A1FF287F697F08430CD0A87F05
:104A500048B10021022000F047FF35A000F094FF8C
:104A6000012104207AE0B8E0D4E01CE14C5F5465F9
:104A70006D703A2000000000485F54656D703A2068
:104A8000000000004C5F48756D693A20000000008E
:104A9000485F48756D693A200000000044656E204B
:104AA00073756F6900000000426F6D206E756F6353
:104AB00000000000517561742074686F6E67206794
:104AC000696F0000436169204461742044656E2071
:104AD00053756F690000000042616E204E67617976
:104AE000000000004D3A000042616E2044656D00F8
:104AF00042616E206E676179202020426174203C03
:104B000020546174000000004E6869657420646F71
:104B1000207461743A00000042616E2064656D206B
:104B2000202020426174203C205461740000000069
:104B30004361692044617420426F6D204E756F633C
:104B40000000000054696D6520313A0054696D65BC
:104B500020323A004E4558540000000000F0C4FED8
:104B6000287FE97F884302D054A000F00DFF687FC2
:104B7000E97F084202D054A000F006FF0221002085
:104B800000F0B2FE53A000F0FFFEA86D90F9010006
:104B900000F07EFF02210A2000F0A6FE4FA000F0E8
:104BA000F3FEA86D90F9000000F072FF03210020D1
:104BB00000F09AFE4BA000F0E7FEA86D90F902000D
:104BC00000F066FF252000F0DBFE0321102000F03E
:104BD0008BFEAFF630401BE06EE0A86D90F903004D
:104BE000012806D0022807D0032808D0042811D1B4
:104BF00008E00221042007E002210F2004E0032145
:104C00000A2001E00321102000F06EFEAFF6B43060
:104C100000F0BAFE687E00284ED0A87F48B300217D
:104C2000084600F061FE32A000F0AEFE0121002037
:104C300000F05AFE33A000F0A7FE354C94F90000B6
:104C400000F026FFAFF6044000F09EFE0221002097
:104C500000F04AFE2FA000F097FE94F9010000F04A
:104C600017FFAFF6204000F08FFE0321002001E087
:104C700014E00BE000F038FE29A000F085FE0321CF
:104C80000F2000F031FEAFF6E4400CE0A8790128D7
:104C90000DD002280ED003280ED103210F2000F0E2
:104CA00023FEAFF64840BDE8F05F00F06DBE012185
:104CB000FFF707B80221FBE7BDE8F09F54686F6972
:104CC000204769616E20310054686F69204769612F
:104CD0006E20320047696F3A00000000506875741A
:104CE0003A000000446F20616D206461743A000056
:104CF0004361692064617420717561742067696F14
:104D000000000000446F20616D206261743A000071
:104D100038000020446F20616D207461743A0000F7
:104D2000426174203E2054617400000001684A69A9
:104D3000D24352050FD46FF480624A61002140F8DB
:104D4000301F202242738173026942F00402026123
:104D50000173012070470020704700002DE9F84FD3
:104D60000446C06A1E4693460D4621680A6842F40E
:104D700080620A60082807D0012805D010F5803F1E
:104D800002D0206B112804D12068016841F48071A1
:104D900001604FF001195B4600224946204600960B
:104DA00000F0C6F84FF4007840B120680068C005F4
:104DB00001D5C4F840800320BDE8F88F2069DFF8F2
:104DC00084A0B0F5804F0FD00620216800EAD517E7
:104DD00047F0F000086133465A460AF106012046C2
:104DE00000F0DAF858BB03E0E8B240F001001CE044
:104DF0002168E8B2086133465A465146204600F021
:104E0000CBF8E0B92068416981690091016841F4FB
:104E1000807101605B46002249462046009600F002
:104E200087F80028C1D147F0F100216808613346B6
:104E30005A465146204600F0AFF80028BCD0012069
:104E4000BAE7000002000100F8B50446C06A1E4639
:104E50000D461746082807D0012805D010F5803FD9
:104E600002D0206B122804D12068016841F48071BF
:104E70000160134600224FF001112046009600F019
:104E800057F840B120680068C00502D54FF40070A3
:104E900020640320F8BD2069B0F5804F0ED00620B5
:104EA000216800EAD51040F0F000086133463A4628
:104EB0000B49204600F070F878B902E005F0FE00DA
:104EC00000E0E8B221680861054933463A46891F87
:104ED000204600F061F80028DCD00120F8BD000079
:104EE0000800010070B516460D4604460DE0204648
:104EF000FFF71CFF08B1012070BD681C05D0FDF74D
:104F00000DFC801BA84207D835B120684069C0431A
:104F10004007ECD4002070BD002044F8300F202161
:104F20006173A073216941F0200121612073E2E7E0
:104F30002DE9F0471E4690460D460446C1F307474B
:104F4000DDF8209008E0701C06D0FDF7E7FBA0EB31
:104F50000900B0420FD876B12068012F18D08069BF
:104F600025EA00000004000C14D000214145EAD0DD
:104F70000020BDE8F087002044F8300F2021617345
:104F8000A073216941F02001216120730120F0E725
:104F90004069E5E70121E9E72DE9F0479A469146A6
:104FA0000E46044600254FF02008C1F3074725E0D0
:104FB00020684069C043400514D42068016841F46A
:104FC0000071016021686FF480604861256384F896
:104FD0003D8084F83E50206C40F00400206484F84A
:104FE0003C501FE0B9F1FF3F08D0FDF797FBA0EB65
:104FF0000A0149450CD8B9F1000F09D02068012FEA
:1050000013D0806926EA00000004000C0BD0CFE723
:1050100044F8305F84F80D80A573206940F02000CB
:10502000206125730120BDE8F0874069EAE72DE99A
:10503000F041002590460E460446202717E04069BF
:10504000C043C0060CD454F8301B6FF01000486108
:1050500044F810596777A577206A2062257717E012
:10506000FDF75CFBA0EB0800B04208D83EB1206819
:105070004169C9434906E2D40020BDE8F08144F803
:10508000305F6773A573206940F0200020612573AD
:105090000120F2E770B516460D4604460DE02046A5
:1050A000FFF744FE08B1012070BD681C05D0FDF774
:1050B00035FB801BA84207D835B120684069C04342
:1050C0000006ECD4002070BD002044F8300F2021F1
:1050D0006173A073216941F0200121612073E2E72F
:1050E0002DE9F05FF84F4FF4006841463846FDF770
:1050F0000BFB0024F54E012540B1B4734146384600
:10510000FDF702FB002862D0012161E00A20FCF7D4
:10511000D4FBB07B401CC0B2B073472807D1FCF76A
:1051200025FA00F0BFFB757535753570B5734146CE
:105130003846FDF7E9FA0028E0D1B07A0028DDD042
:10514000FCF714FA96F8220030B13079401CC0B256
:105150003071032800D93471B07E30B17078401CB2
:10516000C0B27070072800D97570F07E30B1B07889
:10517000401CC0B2B070042800D9B470F07D30B1CA
:105180007079401CC0B27071092800D97571307EE9
:1051900030B1307A401C40B23072042800DD3572E4
:1051A000307F717F084307D0B06DC178491C49B288
:1051B000C170042900DDC570707E00289ED0B079D2
:1051C000401CC0B2B071032898D9B57196E7002190
:1051D000BE4881720221BC48FDF796FABB4FBC4E17
:1051E0004C3707F1040807F1080907F1100B07F124
:1051F000150A48B1B548C4730221B348FDF784FAD3
:10520000002874D0012100E11420FCF756FBAF48C0
:10521000C17B491CC9B2C173112902D90C21C173C8
:1052200005730221A848FDF76FFA0028E4D1A748CA
:10523000017B0029E0D08577C07B012801D1FCF7F4
:1052400095F9A248017D99B1417D31B10178491CA0
:10525000C9B20170042900D90570817E31B341784B
:10526000072937D2DFE801F0361F23272B2F330021
:1052700090F8221071B1017931B1012907D00229CA
:10528000BAD180F82650B7E780F82450B4E780F808
:105290002550B1E7417A491E49B241720029ABDA83
:1052A00007214172A8E77178491C717012E0B1784A
:1052B000491CB1700EE0F178491CF1700AE03179B7
:1052C000491C317106E07179491C717102E0B179B4
:1052D000491CB171C17EB1B18178042913D2DFE8D4
:1052E00001F002070B0F7978491C79700BE08BE015
:1052F0003978491C397006E0F978491CF97002E0E8
:10530000B978491CB970817D31B1C178491CC9B2E5
:10531000C170042900D9C570C17D01B34179092943
:1053200035D2DFE801F034050B11171D23292F00BA
:1053300098F80220521C88F8022028E098F80320F0
:10534000521C88F8032022E099F80220521C89F8A8
:1053500002201CE099F80320521C89F8032016E073
:1053600098F80020521C88F8002010E098F80120DE
:10537000521C88F801200AE099F80020521C89F894
:10538000002004E099F80120521C89F80120017ED8
:1053900059B190F90810012902D0022905D102E083
:1053A0008BF8045001E08AF80450017F427F1143DA
:1053B00014D0816D91F90320012A04D0022A06D06D
:1053C000032A0BD107E04A78521C4A7006E00A789B
:1053D000521C0A7002E08A78521C8A70417E0029B1
:1053E0003FF451AF8079012808D002287FF44BAFF9
:1053F000364838304178491C4170FDE63348383032
:105400000178491C0170F7E6002130480173012141
:105410002D48FDF779F998B12C480474DFF8A8807D
:1054200001214046FDF770F900B10120274F4FF4EC
:10543000806178734046FDF767F900287AD0E5E18E
:105440001420FCF73AFA2148017C491CC9B20174C6
:10545000112902D90C210174457301211A48FDF765
:1054600053F90028DAD11948417B0029D6D0857735
:10547000007C012801D1FCF779F81448017D49B17D
:10548000427D04213AB30278521E12F0FF020270EC
:1054900020D020E090F8221071B1017931B10129BA
:1054A00007D00229BAD180F82640B7E780F8244017
:1054B000B4E780F82540B1E7417A491C49B241720E
:1054C0000729ABDD4472A9E7000C01400000002071
:1054D000940000200170827EFAB14278072A1CD223
:1054E000DFE802F01B04080C101418007278521E3A
:1054F000727012E0B278521EB2700EE0F278521E54
:10550000F2700AE03279521E327106E07279521E50
:10551000727102E0B279521EB271C27EB2B182786B
:10552000042A13D2DFE802F002070B0F7A78521E2A
:105530007A700BE089E03A78521E3A7006E0FA7809
:10554000521EFA7002E0BA78521EBA70827D32B1F1
:10555000C278521E12F0FF02C27000D1C170C17D2C
:1055600001B34179092935D2DFE801F034050B1187
:10557000171D23292F0098F80220521E88F80220B8
:1055800028E098F80320521E88F8032022E099F8BA
:105590000220521E89F802201CE099F80320521EB6
:1055A00089F8032016E098F80020521E88F80020A1
:1055B00010E098F80120521E88F801200AE099F8BE
:1055C0000020521E89F8002004E099F80120521EA4
:1055D00089F80120017E59B190F90810012902D003
:1055E000022905D102E08BF8044001E08AF804406A
:1055F000017F427F114314D0816D91F90320012A6C
:1056000004D0022A06D0032A0BD107E04A78521EA2
:105610004A7006E00A78521E0A7002E08A78521E2A
:105620008A70417E00293FF440AF8079012807D07D
:1056300002287FF43AAF99484178491E4170EDE65F
:1056400096480178491E0170E8E60A20FCF735F912
:10565000787CDFF84C92401CC0B27874472815D192
:105660007D74387D90B9FBF781FF07F8225F7D706C
:1056700000F018F9012238214846FDF74AF8FC707D
:10568000BC703C71FC737C73BC73223F4FF480612F
:105690004046FDF739F880BBF87A70B3FBF766FF38
:1056A00097F8220090B1387903280FD107F8224FDC
:1056B0007C7007F81E4C00F0F5F8012238214846AE
:1056C000FDF727F8FC737C73BC73223F787DF8B13B
:1056D0003878012806D002280AD003280ED00428E2
:1056E00011D012E0BD767D70FC76BC7534700CE094
:1056F000BC763D72FD76BC7507E087E0BC76FC7633
:10570000BD75FC7001E03C753C707C7500F0CAF81A
:10571000B87E48B17878072806D1BC767C707D7554
:1057200000F0C0F8FCF7A6F8F87E48B1B878042875
:1057300006D1BC70FC767D7500F07CFB00F0B2F801
:10574000B87DD8B1F878012806D002280AD00328FD
:105750000BD004280DD00FE07D71FD75BC75FC7475
:10576000BC7409E03D723D7601E0BD717D76BC758B
:1057700002E03C75BC75FD7000F094F8F87D48B10E
:105780007879092806D1FC757C71BD7500F0FEFAA8
:1057900000F088F8387EB0B1387A032809D18BF848
:1057A00003503D778AF803507D77FC773C7600F014
:1057B00079F8387A042806D100F012FB3C723C7666
:1057C00000F070F8BD759BF80300042808D13C7701
:1057D00000F068F8FD778BF803408AF803507D7776
:1057E0009AF80310042905D17C778AF8034000F069
:1057F00059F83D76787E48B1B879032806D1BC7156
:105800007C7600F04FF800F0ABFABD754FF4806184
:105810004046FCF779FF00B10120F872397FF87F2C
:10582000814301D0C7F858B0797F014201D0C7F851
:1058300058A0787808B100F019FBF87E08B100F0A4
:1058400029FCF87DD8B100F0ADFB78790A280CD29C
:10585000DFE800F00B050505050707090909FC74D9
:1058600003E0FD7401E00220F87497F9120097F943
:105870001310884201D000F015F8F87CB874387F16
:10588000797F084301D000F0E1FB787E002803D047
:10589000BDE8F05F00F066BBBDE8F09F3800002077
:1058A0000008014010B50021012000F09DF8BDE87E
:1058B00010400520FCF701B870B50122094D5403D2
:1058C00021462846FCF725FF0320FCF703F80022B9
:1058D00021462846FCF71DFFBDE870403220FBF74B
:1058E000F9BF0000000C014031B1012906D00229A6
:1058F00006D0032907D105E0002204E0402202E09F
:10590000142200E054221044C0B240F08000002174
:1059100000F06AB810B5002000F042F81420FBF740
:10592000CCFF164C00224FF480512046FCF7F1FECC
:10593000002261142046FCF7ECFE032000F030F852
:10594000FFF7BAFF0520FBF7C5FF022000F028F89B
:10595000FFF7B2FF0520FBF7BDFF0021282000F074
:1059600043F800210C2000F03FF8FFF79BFF0021D7
:10597000BDE81040062000F037B80000000C0140E0
:10598000012100F031B8000010B5044603E000BF6B
:10599000FFF7F6FF641C20780028F9D110BD000045
:1059A00070B5044600F001024FF400410C48FCF7CA
:1059B000B0FE0C4DC4F340024FF480712846FCF752
:1059C000A8FEC4F3800269152846FCF7A2FEC4F3C2
:1059D000C00229152846BDE87040FCF79ABE0000B9
:1059E000000C01400008014010B504460A484FF47D
:1059F000805379B101221946FCF78BFE2009FFF78D
:105A0000CFFFFFF759FF2046FFF7CAFFBDE8104060
:105A1000FFF752BF0022EEE7000C014070B50446CC
:105A200001F002FA0646204601F0FEF901F018FAEC
:105A3000214601F05EFB14F1FF4F06D2124901F03E
:105A40005BFA01F0F1F905460FE0104901F054FA54
:105A500001F0EAF90546B4F5000F06DA14F1814FBA
:105A600003D201212D20FFF7BFFF304600F010F8D0
:105A7000002D08DB01212E20FFF7B6FF2846BDE8E8
:105A8000704000F005B870BD00002041000020C14A
:105A9000FEB5051E28D003DA01212D20FFF7A4FF53
:105AA00000240A206E46002D04DD95FBF0F100FB7A
:105AB000115104E0694291FBF0F200FB121195FBD9
:105AC000F0F53155641CE4B2002DECD109E0301939
:105AD000012110F8010C40F03000FFF785FF641E33
